:1000000026C435C434C433C432C47BC430C42FC402
:100010002EC42DC4C0C42BC42AC429C428C445007E
:1000200045004500450046004600460046004600A3
:100030004700470047004700480048004800480084
:1000400049004900490049004A004A004A004A0064
:100050004B004B004B004B004C004C004C004C0044
:100060004D004D004D004D004E004E004E004F0023
:100070004F004F004F005000500050005000510002
:1000800051005100510052005200520053005300E1
:1000900053005300540054005400550055005500BF
:1000A000550056005600560057005700570058009C
:1000B0005800580058005900590059005A005A0079
:1000C0005A005B005B005B005B005C005C005C0056
:1000D0005D005D005D005E005E005E005F005F0031
:1000E0005F0060006000600061006100610062000C
:1000F00062006200630063006300640064006400E7
:1001000065006500650066006600660067006700C0
:1001100067006800680068006900690069006A009B
:100120006A006A006B006B006C006C006C006D0074
:100130006D006D006E006E006F006F006F0070004C
:100140007000700071007100720072007200730024
:1001500073007300740074007500750075007600FC
:1001600076007700770077007800780079007900D2
:100170007A007A007A007B007B007C007C007C00A7
:100180007D007D007E007E007F007F007F0080007C
:100190008000810081008200820082008300830051
:1001A0008400840085008500860086008600870024
:1001B000870088008800890089008A008A008B00F7
:1001C0008B008C008C008D008D008D008E008E00C9
:1001D0008F008F009000900091009100920092009B
:1001E000930093009400940095009500960096006B
:1001F0009700970098009800990099009A009B003A
:100200009B009C009C009D009D009E009E009F0006
:100210009F00A000A000A100A100A200A300A300D5
:10022000A400A400A500A500A600A600A700A800A1
:10023000A800A900A900AA00AA00AB00AC00AC006D
:10024000AD00AD00AE00AF00AF00B000B000B10037
:10025000B200B200B300B300B400B500B500B60000
:10026000B600B700B800B800B900B900BA00BB00CA
:10027000BB00BC00BD00BD00BE00BF00BF00C00091
:10028000C100C100C200C200C300C400C400C50058
:10029000C600C600C700C800C900C900CA00CB001C
:1002A000CB00CC00CD00CD00CE00CF00CF00D000E1
:1002B000D100D200D200D300D400D400D500D600A3
:1002C000D700D700D800D900D900DA00DB00DC0065
:1002D000DC00DD00DE00DF00DF00E000E100E20026
:1002E000E200E300E400E500E600E600E700E800E5
:1002F000E900E900EA00EB00EC00ED00ED00EE00A3
:10030000EF00F000F100F200F200F300F400F5005D
:10031000F600F600F700F800F900FA00FB00FC0018
:10032000FC00FD00FE00FF000001010102010201CE
:1003300003010401050106010701080109010A0181
:100340000A010B010C010D010E010F011001110139
:1003500012011301140115011501160117011801ED
:1003600019011A011B011C011D011E011F012001A1
:100370002101220123012401250126012701280151
:1003800029012A012B012C012D012E012F01300101
:1003900031013201330134013501360137013801B1
:1003A00039013A013C013D013E013F01400141015B
:1003B00042014301440145014601480149014A0106
:1003C0004B014C014D014E014F01510152015301AE
:1003D000540155015601570159015A015B015C0155
:1003E0005D015E01600161016201630164016601FA
:1003F0006701680169016B016C016D016E016F019C
:1004000071017201730174017601770178017A013B
:100410007B017C017D017F018001810183018401D9
:1004200085018701880189018B018C018D018F0174
:1004300090019101930194019501970198019A010E
:100440009B019C019E019F01A101A201A301A501A5
:10045000A601A801A901AA01AC01AD01AF01B0013B
:10046000B201B301B501B601B801B901BB01BC01CC
:10047000BE01BF01C101C201C401C501C701C8015C
:10048000CA01CB01CD01CF01D001D201D301D501E9
:10049000D601D801DA01DB01DD01DF01E001E20173
:1004A000E301E501E701E801EA01EC01ED01EF01FB
:1004B000F101F201F401F601F701F901FB01FD017F
:1004C000FE010002020203020502070209020B02FA
:1004D0000C020E0210021202130215021702190278
:1004E0001B021D021E0220022202240226022802F2
:1004F00029022B022D022F0231023302350237026C
:1005000039023B023D023E024002420244024602E0
:1005100048024A024C024E02500252025402560253
:1005200058025A025C025E026002630265026702C0
:1005300069026B026D026F0271027302750278022A
:100540007A027C027E028002820285028702890290
:100550008B028D02900292029402960298029B02F4
:100560009D029F02A202A402A602A802AB02AD0253
:10057000AF02B202B402B602B902BB02BD02C002AF
:10058000C202C502C702C902CC02CE02D102D30206
:10059000D602D802DA02DD02DF02E202E402E7025A
:1005A000E902EC02EF02F102F402F602F902FB02A8
:1005B000FE0201030303060308030B030E031003EB
:1005C0001303160318031B031E0320032303260330
:1005D00029032B032E0331033403360339033C0371
:1005E0003F034203440347034A034D0350035303AD
:1005F000560358035B035E036103640367036A03E6
:100600006D0370037303760379037C037F03820316
:10061000850388038B038E039103940398039B0344
:100620009E03A103A403A703AA03AE03B103B4036B
:10063000B703BA03BE03C103C403C703CB03CE038E
:10064000D103D503D803DB03DF03E203E503E903AA
:10065000EC03F003F303F603FA03FD0301040404BF
:1006600008040B040F041204160419041D042004CA
:10067000240428042B042F04320436043A043D04D5
:100680004104450448044C045004540457045B04DA
:100690005F04630467046A046E04720476047A04D7
:1006A0007E048204860489048D04910495049904CF
:1006B0009D04A104A504A904AD04B104B504BA04C1
:1006C000BE04C204C604CA04CE04D204D704DB04A8
:1006D000DF04E304E704EC04F004F404F904FD048B
:1006E000010506050A050E05130517051B0520055E
:1006F000240529052D05320536053B053F05440532
:1007000048054D05520556055B05600564056905FC
:100710006E05720577057C05810585058A058F05BF
:10072000940599059D05A205A705AC05B105B6057B
:10073000BB05C005C505CA05CF05D405D905DE052D
:10074000E305E805ED05F305F805FD0502060706D6
:100750000D06120617061C06220627062C06320670
:1007600037063C06420647064D06520658065D0609
:10077000630668066E06730679067F0684068A0697
:10078000900695069B06A106A706AC06B206B8061B
:10079000BE06C406C906CF06D506DB06E106E70697
:1007A000ED06F306F906FF0605070B071107180704
:1007B0001E0724072A07300737073D074307490765
:1007C000500756075C0763076907700776077D07C0
:1007D00083078A07900797079D07A407AB07B10710
:1007E000B807BF07C507CC07D307DA07E007E70755
:1007F000EE07F507FC0703080A08110818081F0888
:1008000026082D0834083B084208490851085808B2
:100810005F0866086E0875087C0884088B0800006D
:10082000000036000102000004000000000000008B
:10083000000038000000000037000202020202023D
:1008400002020202010204081020200410081124F0
:100850001FBECFE5D1E0DEBFCDBF20E0A0E6B0E017
:1008600001C01D92A437B207E1F7C5D06EC1C8CB55
:10087000CF93DF9390E0FC01EC5BF74F2491FC01F8
:10088000E65CF74F8491882361F190E0880F991F0F
:10089000FC01EC5CF74FC591D491FC01E25DF74F90
:1008A000A591B491611109C09FB7F89488812095F2
:1008B00082238883EC912E230BC0623061F49FB7B2
:1008C000F8948881322F309583238883EC912E2BE6
:1008D0002C939FBF06C08FB7F894E8812E2B2883F6
:1008E0008FBFDF91CF910895863008F086508770D2
:1008F00087B9369A3699FECF84B125B190E0922B14
:1009000008951F920F920FB60F9211242F933F93C9
:100910008F939F93AF93BF938091700090917100DC
:10092000A0917200B091730030916F0023E0230F0B
:100930002D3720F40196A11DB11D05C026E8230F17
:100940000296A11DB11D20936F00809370009093BB
:100950007100A0937200B093730080916B0090912E
:100960006C00A0916D00B0916E000196A11DB11DAB
:1009700080936B0090936C00A0936D00B0936E0019
:10098000BF91AF919F918F913F912F910F900FBE8B
:100990000F901F9018951F920F920FB60F9211246F
:1009A0002F933F938F939F93209164003091650024
:1009B0008091620090916300820F931F9093630077
:1009C000809362008091620090916300292F892FAB
:1009D00090916800992329F081E0213808F080E0A7
:1009E00081958EBD9F918F913F912F910F900FBE5A
:1009F0000F901F90189578948AB582608ABD8AB549
:100A000081608ABD83B7826083BF83B7816083BF03
:100A100089B7826089BF80B7826080BF80B78160FC
:100A200080BF329A319A309A379A8CB580648CBDE7
:100A300086E087BD19BE82E680BF80E88EBD61E09A
:100A400081E016DF60E088E013DF60E080E010DF27
:100A500060E089E00DDF83E08ABD8AE083BF80E14A
:100A600089BF8DE189BD1092630010926200C4E2DB
:100A7000D8E004E418E05AE3E52E58E0F52E60E0F3
:100A8000C62E60E0D62E88E02FDF880F991FFC016C
:100A9000E25EFF4F8591949190936A008093690084
:100AA000FE018491F8012491F7013491332331F14F
:100AB000882399F0823071F028F4813071F49AB56E
:100AC0009F770AC0833011F0843039F49CB59F7D44
:100AD0009CBD03C09AB59F7D9ABDE32FF0E0EE0F59
:100AE000FF1FE25EF74FA591B4918C91822331E014
:100AF00020E009F430E0832F922F02C080E090E0E4
:100B0000F1E08F278093680089E0EEDE23E0959581
:100B100087952A95E1F78054910990936700809317
:100B200066002091690030916A0080916600909182
:100B30006700820F931F9093650080936400C11437
:0E0B4000D10409F4A0CF5CDA9ECFF894FFCF69
:00000001FF
